:020000040000FA
:100000000C9463000C948B000C948B000C948B006C
:100010000C948B000C948B000C948B000C94C105F9
:100020000C948B000C948B000C948B000C948B0024
:100030000C948B000C948B000C948B000C948B0014
:100040000C941D060C948B000C948B000C948B006C
:100050000C948B000C948B000C948B000C948B00F4
:100060000C9467060C948B0000000000240027000D
:100070002A000000000023002600290000000008DC
:10008000000201000003040700000000000000005F
:10009000010204081020408001020408102001021F
:1000A0000408102000000000250028002B00040494
:1000B0000404040404040202020202020303030310
:1000C00003030200860711241FBECFEFD8E0DEBF76
:1000D000CDBF11E0A0E0B1E0E4E3F2E102C00590A1
:1000E0000D92A637B107D9F722E0A6E7B1E001C02B
:1000F0001D92A236B207E1F710E0C3E6D0E004C0DB
:100100002197FE010E941209C236D107C9F70E9449
:10011000A6070C9418090C94000008950895AF9256
:10012000BF92CF92DF92EF92FF920F931F93CF93E4
:10013000DF936C017B018B01040F151FEB015E0146
:10014000AE18BF08C017D10759F06991D601ED91DB
:10015000FC910190F081E02DC6010995892B79F77A
:10016000C501DF91CF911F910F91FF90EF90DF902C
:10017000CF90BF90AF900895833081F028F4813004
:1001800099F08230A9F008958730A9F08830C9F03D
:100190008430B1F4809180008F7D03C08091800015
:1001A0008F7780938000089584B58F7784BD0895FC
:1001B00084B58F7DFBCF8091B0008F778093B000A6
:1001C00008958091B0008F7DF9CFCF93DF93282FD2
:1001D00030E0F901E458FF4F8491F901E057FF4FF7
:1001E000D491F901E255FF4FC491CC23A1F08111C4
:1001F0000E94BC00EC2FF0E0EE0FFF1FEE58FF4F07
:10020000A591B491EC91ED2381E090E009F480E0B8
:10021000DF91CF91089580E090E0FACF1F93CF93C4
:10022000DF93282F30E0F901E458FF4F8491F90162
:10023000E057FF4FD491F901E255FF4FC491CC2311
:10024000A9F0162F81110E94BC00EC2FF0E0EE0FF8
:10025000FF1FEC55FF4FA591B4918FB7F894EC9127
:10026000111108C0D095DE23DC938FBFDF91CF91B1
:100270001F910895DE2BF8CF9091000189130BC0D8
:10028000E2ECF0E0E4919FEF90930001E13049F05F
:1002900028F0E23061F060E00C940E0110926E00E4
:1002A000FACF90916F009D7F90936F00F4CF909163
:1002B00070009D7F9093700091E09093B0009091BA
:1002C000B100987F94609093B1001092B300E3CF97
:1002D000CF93DF9390E0FC01E057FF4F24918255CC
:1002E0009F4FFC0184918823D1F090E0880F991FE3
:1002F000FC01E859FF4FA591B491FC01EC55FF4F6B
:10030000C591D49161110EC09FB7F8948C91E22FE2
:10031000E0958E238C932881E223E8839FBFDF91B1
:10032000CF9108958FB7F894EC91E22BEC938FBFA7
:10033000F6CFCF92DF92EF92FF92CF936B01909125
:100340000001891749F09F3F09F44BC0CF91FF90FE
:10035000EF90DF90CF900895E2ECF0E0C491C7FDFC
:10036000F5CF61E00E946801CC2319F0C23009F09A
:10037000E3C0F12CE12C60E472E48FE090E0A7018F
:1003800096010E94D108BA01A901415051096109A1
:100390007109C23009F09EC092E04F3F51056105DE
:1003A000710581F07CF060E970ED83E090E0A701D9
:1003B00096010E94D108BA01A90141505109610971
:1003C000710993E08091B100887F892B8093B100FF
:1003D000C13009F4C9C0C23009F4DBC0C111B6CFC5
:1003E00099C080930001E2ECF0E0C491CF3F09F4A2
:1003F000ADCFC13039F148F0C23009F445C0C7FD76
:10040000A5CF61E00E946801B1CF14BC15BC94B5C2
:10041000926094BD95B5916095BD282F30E0F901AB
:10042000E255FF4FE491F0E0EE0FFF1FEC55FF4F58
:1004300045915491F901E057FF4FE491E0933D025B
:10044000C0E08FCF109280001092810090918100C7
:1004500098609093810090918100916090938100C9
:10046000282F30E0F901E255FF4FE491F0E0EE0F64
:10047000FF1FEC55FF4F45915491F901E057FF4F95
:10048000E491E0933C026DCF1092B0001092B10065
:100490009091B00092609093B0009091B100916003
:1004A0009093B100282F30E0F901E255FF4FE4911D
:1004B000F0E0EE0FFF1FEC55FF4F45915491509324
:1004C0003B0240933A02F901E057FF4FE491E09379
:1004D000390247CF4F3F510561057105A1F09CF0EE
:1004E00068E478EE81E090E0A70196010E94D108CF
:1004F000BA01A901415051096109710994E0C11182
:1005000061CF93E003C092E0C1115CCF85B5887FD5
:10051000892B85BD47BD8FEF9FEFDC01809346029D
:1005200090934702A0934802B093490280916E00D5
:10053000826080936E000ACF960150E040E060E058
:1005400072E18AE790E00E94D108BA01A901415006
:10055000510961097109C13009F03ACF80918100D8
:10056000887F816080938100509389004093880048
:100570008FEF9FEFDC018093420290934302A093A0
:100580004402B093450280916F00826080936F00B7
:10059000DDCE4093B3008FEF9FEFDC0180933E02EE
:1005A00090933F02A0934002B0934102809170006B
:1005B000826080937000CACE3FB7F89480912D027C
:1005C00090912E02A0912F02B091300226B5A89BE7
:1005D00005C02F3F19F00196A11DB11D3FBFBA2FD5
:1005E000A92F982F8827BC01CD01620F711D811D95
:1005F000911D42E0660F771F881F991F4A95D1F71A
:1006000008958F929F92AF92BF92CF92DF92EF9216
:10061000FF924B015C010E94DC026B017C010E9495
:10062000DC026C197D098E099F09683E73408105C3
:100630009105A8F321E0821A9108A108B10888EE7B
:10064000C80E83E0D81EE11CF11C81149104A104A2
:10065000B10429F7FF90EF90DF90CF90BF90AF905B
:100660009F908F90089508952091B701260F33270A
:10067000331F21323105ECF420910002FC0190E09F
:1006800080E0243069F082E00895A091B7012191C3
:10069000AC0149565E4FA40FB52FB11D2C930196A6
:1006A000861798F38091B701680F6093B70180E0D7
:1006B000089581E008951092000281E08093FF0187
:1006C0001092DA0161E082E10E940E0161E083E1B3
:1006D0000E940E01E9EBF0E080818E7F80838081B3
:1006E0008D7F808388E48093B80085E48093BC008C
:1006F0000895CF93DF9391E0909396018823B9F00A
:10070000C091B800D091BA008091BC008A7B8093E0
:10071000BC0060E082E10E940E0160E083E10E9483
:100720000E010E945B03D093BA00C093B800DF9122
:10073000CF9108950895E091380280913702E8172B
:1007400030F4F0E0EA58FE4F808190E008958FEF9A
:100750009FEF089590913802809137022FEF3FEF7D
:10076000981748F4E92FF0E0EA58FE4F208130E076
:100770009F5F90933802C90108958091370290914C
:100780003802891B990B0895CF92DF92EF92FF9266
:100790000F931F93CF93DF937C01CB018A012091AC
:1007A0000602222389F0EB016B01C40ED51ECC1585
:1007B000DD0569F06991D701ED91FC910190F0811F
:1007C000E02DC7010995F3CF642F0E943403C801BF
:1007D000DF91CF911F910F91FF90EF90DF90CF901D
:1007E0000895CF93DF931F92CDB7DEB76983209131
:1007F00006022223F9F020913502203258F021E040
:1008000030E0FC013383228390E080E00F90DF91A1
:10081000CF91089580913602E82FF0E0E95FFD4F17
:10082000998190838F5F809336028093350281E0B7
:1008300090E0ECCF61E0CE0101960E943403F7CF47
:10084000CF92DF92EF92FF920F931F93CF93DF939C
:10085000FC01C48121E020930602C093270210927C
:100860003602109235028385682B8AE492E00E945A
:10087000F103D0913502D13208F092C00E94DC021F
:100880006B017C0180910002811165C082E0809340
:10089000000281E08093FF018FEF8093FE011092B0
:1008A000FD01D093FC01A7E0B2E0ECEDF1E080E0C7
:1008B000D81385C01092DB018091DB01CC0FC82BCF
:1008C000C093DB018091DA01813009F07CC0109285
:1008D000DA010E94DC026B017C018091DB018093D4
:1008E000BB008091020290910302A0910402B0919A
:1008F0000502892B8A2B8B2B99F00E94DC02009138
:1009000002021091030220910402309105026C1939
:100910007D098E099F090617170728073907E0F197
:100920008091BC0083FDD9CF85EC8093BC000E94F0
:10093000DC026B017C0180910002823009F445C029
:100940008091FE018F3F61F18091FE01803241F183
:100950008091FE0125C08091020290910302A09136
:100960000402B0910502892B8A2B8B2B09F48ACFC4
:100970000E94DC0200910202109103022091040205
:10098000309105026C197D098E099F09061717071A
:100990002807390708F076CF809101020E94790379
:1009A000109236021092350210920602DF91CF911A
:1009B0001F910F91FF90EF90DF90CF9008959D9140
:1009C00091938F5F75CF85EEB0CF809102029091A9
:1009D0000302A0910402B0910502892B8A2B8B2B74
:1009E00009F4A9CF0E94DC020091020210910302D7
:1009F00020910402309105026C197D098E099F092E
:100A0000061717072807390708F095CFC5CF90E0DC
:100A100080E00895FC0101900020E9F73197AF01D3
:100A2000481B590BBC0186E592E00C948F000F9394
:100A30001F93CF938C01C62F0E9420046C2F6460FB
:100A4000C8010E9420046C2F6B7FC8010E94200403
:100A500083EC90E00197F1F7CF911F910F910895EA
:100A60000F931F93CF93DF938C01D62FC42F607FFA
:100A7000642B0E94170580E1D89FB00111246C2BD4
:100A8000C801DF91CF911F910F910C94170540E0A1
:100A900061E086E592E00E9430058BE39FE10197DB
:100AA000F1F70895CF93DF93CDB7DEB728970FB650
:100AB000F894DEBF0FBECDBF98E0E1E0F1E0DE01CB
:100AC000119601900D929A95E1F790915E02981718
:100AD00008F48FEF90E0880F991F21E030E02C0F91
:100AE0003D1F820F931FFC016081606840E086E536
:100AF00092E028960FB6F894DEBF0FBECDBFDF910F
:100B0000CF910C94300541E00E94300581E090E0E7
:100B1000089585ED8093BC008091020290910302BC
:100B2000A0910402B09105020796A11DB11D23E01A
:100B3000B695A795979587952A95D1F72091BC00F2
:100B400024FD03C0109200020895409102025091CA
:100B500003026091040270910502452B462B472B3E
:100B600069F30097A105B10541F025E32A95F1F756
:100B700000000197A109B109E1CF809101020C9415
:100B800079031F920F920FB60F9211242F933F9368
:100B90004F935F936F937F938F939F93AF93BF9385
:100BA000EF93FF9380913E0290913F02A09140020B
:100BB000B0914102892B8A2B8B2BD1F19091390274
:100BC000E0913A02F0913B028081892780838091F5
:100BD0003E0290913F02A0914002B091410218164E
:100BE00019061A061B069CF480913E0290913F0262
:100BF000A0914002B09141020197A109B1098093EF
:100C00003E0290933F02A0934002B0934102FF91B5
:100C1000EF91BF91AF919F918F917F916F915F9174
:100C20004F913F912F910F900FBE0F901F901895ED
:100C3000809100010E943C01EACF1F920F920FB6F3
:100C40000F9211242F933F938F939F93AF93BF9352
:100C50008091290290912A02A0912B02B0912C023E
:100C60003091280223E0230F2D3758F50196A11D5E
:100C7000B11D209328028093290290932A02A09309
:100C80002B02B0932C0280912D0290912E02A09104
:100C90002F02B09130020196A11DB11D80932D024B
:100CA00090932E02A0932F02B0933002BF91AF9188
:100CB0009F918F913F912F910F900FBE0F901F909A
:100CC000189526E8230F0296A11DB11DD2CF1F92C1
:100CD0000F920FB60F9211242F933F934F935F9370
:100CE0006F937F938F939F93AF93BF93EF93FF93F4
:100CF0008091B900887F803609F44AC0F0F58832C7
:100D000009F4A7C018F5803109F49BC0B8F4882312
:100D100009F4F9C0883009F494C0FF91EF91BF91B4
:100D2000AF919F918F917F916F915F914F913F9183
:100D30002F910F900FBE0F901F901895883109F4D6
:100D400088C0803251F78093FE0114C0803409F4CA
:100D50009DC040F48033B9F38833F9F68093FE01E7
:100D600085ECB0C0803509F485C0883509F496C09B
:100D7000883499F60E948905D0CF883909F48CC04F
:100D800038F5883729F050F4883611F0803729F685
:100D900083E0809300021092D90157C0883809F48B
:100DA0007BC0803919F0803809F0B7CF8091D90124
:100DB000803208F071C0E091D90181E08E0F8093FC
:100DC000D9018091BB00F0E0E754FE4F80833DC025
:100DD000803B39F0E0F4803A09F479C0883A09F0B0
:100DE0009CCF84E0809300021092B8011092B7016A
:100DF000E0913302F091340209958091B70181119D
:100E00000FC081E08093B7011092970109C0803C28
:100E100009F4A6CF883C09F4A3CF883B09F07DCF25
:100E2000E091B80181E08E0F8093B801F0E0E956BF
:100E3000FE4F80818093BB009091B8018091B701F3
:100E400029C08091DB018093BB0085EC8093BC00BE
:100E500064CF9091FD018091FC01981758F5E091C5
:100E6000FD0181E08E0F8093FD01F0E0E452FE4F22
:100E70008081E9CFE091FD0181E08E0F8093FD013B
:100E80008091BB00F0E0E452FE4F80839091FD0121
:100E90008091FC019817C8F285E8D8CFE091FD0158
:100EA00081E08E0F8093FD018091BB00F0E0E45261
:100EB000FE4F80838091FF0181115CCF81E08093A0
:100EC000DA0184EA8093BC001092000226CF85EC00
:100ED0008093BC00109200028091D901803230F4DE
:100EE000E091D901F0E0E754FE4F10826091D90102
:100EF00070E0E0913102F091320289EB91E00995C6
:100F00001092D9010ACF1092FE0134CFEAE4F2E048
:100F10001382128288EE93E0A0E0B0E08483958390
:100F2000A683B7838DE091E091838083E6E5F2E0CC
:100F3000138212828FE191E09183808387E2848320
:100F400080E1818782E0828713860895789484B552
:100F5000826084BD84B5816084BD85B5826085BDB5
:100F600085B5816085BD80916E00816080936E0043
:100F70001092810080918100826080938100809135
:100F800081008160809381008091800081608093E6
:100F900080008091B10084608093B1008091B000A6
:100FA00081608093B00080917A00846080937A00A1
:100FB00080917A00826080937A0080917A008160CB
:100FC00080937A0080917A00806880937A001092F2
:100FD000C10060E082E00E94680160E083E00E945E
:100FE000680161E084E00E9468011092380210926A
:100FF000370210923602109235020E945B038DE890
:1010000090E090933402809333028EE890E09093C6
:1010100032028093310210925B0280916002823032
:1010200018F098E090935B0280935E0262E370E0B8
:1010300080E090E00E9401036091610286E592E009
:101040000E94200468EE73E080E090E00E940103BB
:1010500060E386E592E00E941705CBE4D6E4CE017A
:101060000197F1F760E386E592E00E94170521976A
:10107000F1F760E386E592E00E94170583E592E0D0
:101080000197F1F760E286E592E00E941705609112
:101090005B02606240E086E592E00E94300584E0F9
:1010A00080935C0240E06CE086E592E00E943005AF
:1010B0000E94470582E080935D0240E066E086E59D
:1010C00092E00E94300540E062E086E592E00E94F6
:1010D00030058BE39FE10197F1F788E0809361028F
:1010E00060E086E592E00E9420040E94470580E0CF
:1010F0000E94520587E291E00E940A0581E00E9469
:10110000520584E391E00E940A0584E00E943C01BC
:1011100060ED77E080E090E00E9401030E944705C7
:1011200000E010E082E00E94E5007C0183E00E9484
:10113000E500EC010E94470580E00E945205EA9418
:10114000EF2851F0CD2B31F18DE691E00E940A0598
:1011500084E00E943C010BC0CD2BA9F482E491E015
:101160000E940A0568E873E184E00E9499016CE23C
:1011700071E080E090E00E9401030115110591F2F9
:101180000E940000CFCF80E591E00E940A0568EB45
:101190007BE0EACF8EE591E00E940A056CEA7DE0F3
:1011A000E3CF052E97FB1EF400940E94E80857FD3C
:1011B00007D00E94F00807FC03D04EF40C94E80816
:1011C00050954095309521953F4F4F4F5F4F089573
:1011D00090958095709561957F4F8F4F9F4F0895A3
:1011E000A1E21A2EAA1BBB1BFD010DC0AA1FBB1F2B
:1011F000EE1FFF1FA217B307E407F50720F0A21B9D
:10120000B30BE40BF50B661F771F881F991F1A9409
:1012100069F760957095809590959B01AC01BD0133
:10122000CF010895EE0FFF1F0590F491E02D099472
:10123000F894FFCFFF0000400014005400000000AD
:1012400000F103C40307059A03BD03AA039B03002F
:1012500000000083058F000705330353797374651D
:101260006D205265616479004D6F6E69746F7269AB
:101270006E672E2E2E00476173202B204669726503
:10128000212121004761732044657465637465649E
:101290002100466972652044657465637465642144
:0A12A0000053616665204E6F770071
:107E0000112484B714BE81FFF0D085E080938100F7
:107E100082E08093C00088E18093C10086E0809377
:107E2000C20080E18093C4008EE0C9D0259A86E02C
:107E300020E33CEF91E0309385002093840096BBD3
:107E4000B09BFECF1D9AA8958150A9F7CC24DD24C4
:107E500088248394B5E0AB2EA1E19A2EF3E0BF2EE7
:107E6000A2D0813461F49FD0082FAFD0023811F036
:107E7000013811F484E001C083E08DD089C08234E0
:107E800011F484E103C0853419F485E0A6D080C0E4
:107E9000853579F488D0E82EFF2485D0082F10E0AE
:107EA000102F00270E291F29000F111F8ED06801E7
:107EB0006FC0863521F484E090D080E0DECF843638
:107EC00009F040C070D06FD0082F6DD080E0C81688
:107ED00080E7D80618F4F601B7BEE895C0E0D1E017
:107EE00062D089930C17E1F7F0E0CF16F0E7DF06D8
:107EF00018F0F601B7BEE89568D007B600FCFDCFD4
:107F0000A601A0E0B1E02C9130E011968C91119780
:107F100090E0982F8827822B932B1296FA010C0160
:107F200087BEE89511244E5F5F4FF1E0A038BF0790
:107F300051F7F601A7BEE89507B600FCFDCF97BE46
:107F4000E89526C08437B1F42ED02DD0F82E2BD052
:107F50003CD0F601EF2C8F010F5F1F4F84911BD097
:107F6000EA94F801C1F70894C11CD11CFA94CF0C13
:107F7000D11C0EC0853739F428D08EE10CD085E9AC
:107F80000AD08FE07ACF813511F488E018D01DD067
:107F900080E101D065CF982F8091C00085FFFCCF94
:107FA0009093C60008958091C00087FFFCCF809118
:107FB000C00084FD01C0A8958091C6000895E0E648
:107FC000F0E098E1908380830895EDDF803219F02E
:107FD00088E0F5DFFFCF84E1DECF1F93182FE3DFCA
:107FE0001150E9F7F2DF1F91089580E0E8DFEE27F6
:047FF000FF270994CA
:027FFE00040479
:00000001FF
